:020000040000FA
:06000000B4EF05F0120050
:020006001200E6
:08000800F2A402D024EF00F085
:100010009EA002D09BEF00F01200D08EF28EF28CE8
:020020001200CC
:0E0022000300BB0B0000260F000002000000D0
:10003000BA0B0000290F0000010000009E0B000019
:08004000000F00001C0000008D
:08004800DACFE4FFE2CFDAFF9A
:10005000E9CFE4FFEACFE4FFF6CFE4FFF7CFE4FF18
:10006000F5CFE4FFF3CFE4FFF4CFE4FFFACFE4FFF2
:1000700000EE00F0100EE80403E3EECFE4FFFBD740
:1000800000EE10F0090EE80403E3EECFE4FFFBD727
:10009000E652F2940F010E2B000E0F23102B1123AA
:1000A000122B1323142B15231607175B173504E2A5
:1000B00016510008000E175508E3182B000E1923DF
:1000C0001A231B23C80E166F176B0251031107E08A
:1000D00005D003CFFAFF0F010251F96EFADF00CF0E
:1000E000E6FF01CFE6FF5CEC05F0E552E552E55294
:1000F00000EE18F0090EE80403E3E5CFEDFFFBD7AF
:1001000000EE0FF0100EE80403E3E5CFEDFFFBD7A0
:10011000E5CFFAFFE5CFF4FFE5CFF3FFE5CFF5FF3D
:10012000E5CFF7FFE5CFF6FFE5CFEAFFE5CFE9FF43
:10013000E5CFDAFF1100DACFE4FFE2CFDAFFE9CF53
:10014000E4FFEACFE4FFF6CFE4FFF7CFE4FFF5CF1B
:10015000E4FFF3CFE4FFF4CFE4FFFACFE4FF00EED7
:1001600000F0100EE80403E3EECFE4FFFBD700EE4F
:1001700010F0090EE80403E3EECFE4FFFBD7E652EC
:100180009E9004CFE6FF05CFE6FF40EC05F0E55278
:10019000E5520F010651071107E005D007CFFAFF1E
:1001A0000F010651F96EFADFE55200EE18F0090E64
:1001B000E80403E3E5CFEDFFFBD700EE0FF0100EF0
:1001C000E80403E3E5CFEDFFFBD7E5CFFAFFE5CF8A
:1001D000F4FFE5CFF3FFE5CFF5FFE5CFF7FFE5CF80
:1001E000F6FFE5CFEAFFE5CFE9FFE5CFDAFF110043
:1001F000DACFE4FFE2CFDAFFE9CFE4FFEACFE4FFB2
:10020000F6CFE4FFF7CFE4FFF5CFE4FFF3CFE4FF51
:10021000F4CFE4FFFACFE4FF00EE00F0100EE804A4
:1002200003E3EECFE4FFFBD700EE10F0090EE80485
:1002300003E3EECFE4FFFBD7E652A19208CFE6FF3F
:1002400009CFE6FF40EC05F0E552E5520F010A51F7
:100250000B1107E005D00BCFFAFF0F010A51F96E21
:10026000FADFE55200EE18F0090EE80403E3E5CFEB
:10027000EDFFFBD700EE0FF0100EE80403E3E5CF2F
:10028000EDFFFBD7E5CFFAFFE5CFF4FFE5CFF3FFB6
:10029000E5CFF5FFE5CFF7FFE5CFF6FFE5CFEAFFC6
:1002A000E5CFE9FFE5CFDAFF1100D9CFE6FFE1CFD7
:1002B000D9FF9F0EE66E78EC05F0E552FD0EDBCF20
:1002C00000FFFE0EDBCF01FFFB0EDBCF02FFFC0EBB
:1002D000DBCF03FFFD0EDBCFE6FFFE0EDBCFE6FF3D
:1002E0005CEC05F0E552E552E552E7CFD9FF12008C
:1002F000D9CFE6FFE1CFD9FFC50EE66E03EC05F0DE
:10030000E552FD0EDBCFE6FFFE0EDBCFE6FF40EC55
:1003100005F0E552E5529F80FD0EDBCF04FFFE0E97
:10032000DBCF05FFFB0EDBCF06FFFC0EDBCF07FFAD
:10033000E552E7CFD9FF1200D9CFE6FFE1CFD9FFD1
:10034000CD0EE66EE2EC04F0E552FD0EDBCFE6FFEB
:10035000FE0EDBCFE6FF24EC05F0E552E552FD0E84
:10036000DBCF08FFFE0EDBCF09FFFB0EDBCF0AFF62
:10037000FC0EDBCF0BFFE552E7CFD9FF1200D9CF40
:10038000E6FFE1CFD9FF040EE126F29A18CFDFFF96
:10039000010E19CFDBFF020E1ACFDBFF030E1BCFBE
:1003A000DBFFF28ADECF04F0DECF05F0DECF06F011
:1003B000DDCF07F0DD52DD52040EE15C03E200D038
:0E03C000E16AE552E16EE552E7CFD9FF120087
:0203CE00D9CF85
:1003D000E6FFE1CFD9FF110EE126DF6A080EDF5CF0
:1003E00027E2010EDF5206E0DFCFF3FFE846FE0B07
:1003F000F306FCE1806E900EF36E010EF3CFDBFF8F
:10040000F36E020EF3CFDBFF010EDBCF10F0DB0645
:10041000020EDBCF11F001E2DB061050111006E0F6
:10042000080EE66E94EC05F0E552EED7DF2AD6D73B
:10043000806ADF6A080EDF5C28E2010EDF5206E008
:10044000DFCFF3FFE846FE0BF306FCE1816E900E72
:10045000F36E030EF3CFDBFF010EF36E040EF3CF4A
:10046000DBFF030EDBCF10F0DB06040EDBCF11F059
:1004700001E2DB061050111006E0080EE66E94EC67
:1004800005F0E552EED7DF2AD5D7816ADF6A080E7C
:10049000DF5C28E2010EDF5206E0DFCFF3FFE84623
:1004A000FE0BF306FCE1826E900EF36E050EF3CFA9
:1004B000DBFF010EF36E060EF3CFDBFF050EDBCF85
:1004C00010F0DB06060EDBCF11F001E2DB06105068
:1004D000111006E0080EE66E94EC05F0E552EED73A
:1004E000DF2AD5D7826ADF6A080EDF5C28E2010EB8
:1004F000DF5206E0DFCFF3FFE846FE0BF306FCE138
:10050000836E900EF36E070EF3CFDBFF010EF36EDA
:10051000080EF3CFDBFF070EDBCF10F0DB06080E73
:10052000DBCF11F001E2DB061050111006E0080EDF
:10053000E66E94EC05F0E552EED7DF2AD5D7836A54
:10054000DF6A080EDF5C28E2010EDF5206E0DFCF33
:10055000F3FFE846FE0BF306FCE1846E900EF36EAB
:10056000090EF3CFDBFF010EF36E0A0EF3CFDBFFB4
:10057000090EDBCF10F0DB060A0EDBCF11F001E233
:10058000DB061050111006E0080EE66E94EC05F044
:10059000E552EED7DF2AD5D7846ADF6A080EDF5C22
:1005A00028E2010EDF5206E0DFCFF3FFE846FE0B44
:1005B000F306FCE1856E900EF36E0B0EF3CFDBFFBE
:1005C000010EF36E0C0EF3CFDBFF0B0EDBCF10F042
:1005D000DB060C0EDBCF11F001E2DB061050111030
:1005E00006E0080EE66E94EC05F0E552EED7DF2A41
:1005F000D5D7856ADF6A080EDF5C28E2010EDF527C
:1006000006E0DFCFF3FFE846FE0BF306FCE1876E62
:10061000900EF36E0D0EF3CFDBFF010EF36E0E0E98
:10062000F3CFDBFF0D0EDBCF10F0DB060E0EDBCFC2
:1006300011F001E2DB061050111006E0080EE66E24
:1006400094EC05F0E552EED7DF2AD5D7876ADF6A4A
:10065000080EDF5C28E2010EDF5206E0DFCFF3FF79
:10066000E846FE0BF306FCE1886E900EF36E0F0E6B
:10067000F3CFDBFF010EF36E100EF3CFDBFF0F0E97
:10068000DBCF10F0DB06100EDBCF11F001E2DB0652
:100690001050111006E0080EE66E94EC05F0E552DD
:1006A000EED7DF2AD5D7886A110EE15C02E2E16A53
:0C06B000E552E16EE552E7CFD9FF1200E1
:0406BC00D9CFE6FFAD
:1006C000E1CFD9FF080EE126FB0EDBCF05F0FC0ED3
:1006D000DBCF06F0FD0EDBCF07F0FE0EDBCF08F020
:1006E000055007E1120E061804E17A0E071801E121
:1006F00008501EE0055007E1240E061804E1F40E30
:10070000071801E1085010E0055008E1480E0618EE
:1007100005E1E80E071802E1010E081801E000D01B
:10072000700ED36E9B8C08D0600ED36E9B8C04D061
:10073000500ED36E9B8C00D0050EF36E040EF3CFDB
:10074000DBFF050EDB6A040EDBCF10F0DB06050EC7
:10075000DBCF11F001E2DB061050111006E0080EAD
:10076000E66E94EC05F0E552EED7FB0EDBCF10F011
:10077000FC0EDBCF11F0FD0EDBCF12F0FE0EDBCF57
:1007800013F0020ED8901332123211321032E806F2
:10079000F9E110C0DFFF010E11C0DBFF020E12C035
:1007A000DBFF030E13C0DBFFD9CFE9FFDACFEAFF8F
:1007B000E80E096E030E0A6E0B6A0C6AEECF04F0A7
:1007C000EECF05F0EECF06F0EFCF07F0BEEC04F071
:1007D00007C0EDFF06C0EDFF05C0EDFF04C0EFFF51
:1007E00013681468156ADFCF16F0010EDBCF17F01F
:1007F000186A1650135C106E17501458116E18506A
:100800001558126E10C026FF11C027FFC26A0F0EC6
:10081000C16EB50EC06E800E9C6E98908690926AE6
:10082000936A946A956A966A976A996A9A6A806ADC
:10083000816A826A836A846A856A876A886A640EC2
:10084000F36E060EF3CFDBFF070EDB6A060EDBCF7F
:1008500010F0DB06070EDBCF11F001E2DB061050D3
:10086000111006E0080EE66E94EC05F0E552EED7A6
:10087000080EE15C02E2E16AE552E16EE552E7CF83
:04088000D9FF12008A
:0C088400220EF66E000EF76E000EF86EED
:100890000F010900F550216F0900F550226F03E1A7
:1008A000216701D03DD00900F5501C6F0900F550BB
:1008B0001D6F0900F5501E6F09000900F550E96E23
:1008C0000900F550EA6E090009000900F5501F6F94
:1008D0000900F550206F09000900F6CF23FFF7CF7C
:1008E00024FFF8CF25FF1CCFF6FF1DCFF7FF1ECF4B
:1008F000F8FF0F011F5302E1205307E00900F550F4
:10090000EE6E1F07F8E22007F9D723CFF6FF24CFBA
:10091000F7FF25CFF8FF0F012107000E225BBFD79D
:020920001200C3
:0E092200E66A480EE66EE80EE66E010EE66E20
:100930005EEC03F0E552E552E552E552C2EC05F0FB
:10094000000EE66EE66ABF0EE66EE00EE66E55EC51
:1009500001F0E552E552E552E552E7EC01F00DEC0D
:1009600000F00F01E80E0E5D030E0F5905E3C5EC14
:0C09700005F00F010E6B0F6BF4D71200A6
:04097C00036A026A9E
:10098000016A006A200EE76ED890043605360636F6
:10099000073600360136023603360950005C0A502D
:1009A00001580B5002580C50035809E30950005EDF
:1009B0000A50015A0B50025A0C50035A042AE72ECF
:0409C000E4D7120066
:0C09C400D9CFE6FFDACFE6FFE1CFD9FF84
:1009D000E2CFDAFFFD0EDB50360BB16EB36AB26ABE
:1009E000A192FD0EDBAE02D0A08201D0A092DBA0CE
:1009F00002D0B18E01D0B19EB180E552E5CFDAFFD1
:060A0000E7CFD9FF120050
:0A0A0600D9CFE6FFDACFE6FFE1CF1B
:100A1000D9FFE2CFDAFFFD0EDB507E0BCD6EFD0E6F
:100A2000DBAC02D0CD8E01D0CD9ECF6ACE6A9E9037
:100A3000DBAE02D09D8001D09D90CD80E552E5CF08
:080A4000DAFFE7CFD9FF120035
:080A4800D9CFE6FFDACFE6FF8B
:100A5000E1CFD9FFE2CFDAFFE652E652FC0EDBCF60
:100A6000DEFFDBCFDDFF010EDB50B36EDF50B26E79
:100A7000E552E552E552E5CFDAFFE7CFD9FF1200A4
:100A8000D9CFE6FFDACFE6FFE1CFD9FFE2CFDAFF39
:100A9000E652E652FC0EDBCFDEFFDBCFDDFF010EC0
:100AA000DB50CF6EDF50CE6EE552E552E552E5CF1A
:080AB000DAFFE7CFD9FF1200C5
:080AB800D9CFE6FFDACFE6FF1B
:100AC000E1CFD9FFE2CFDAFFE652E652FC0EDBCFF0
:100AD000DEFFDBCFDDFF010EDB50D76EDF50D66EC1
:100AE000E552E552E552E5CFDAFFE7CFD9FF120034
:100AF000D9CFE6FFDACFE6FFE1CFD9FFE2CFDAFFC9
:100B0000FD0EDB507F0BD56ED76AD66AF294FD0ED0
:100B1000DBAE02D0F28A01D0F29AD58EE552E5CF53
:080B2000DAFFE7CFD9FF120054
:080B2800FF0EE350196E480EA8
:100B300001D04C0EE76EE72EFED7E76AE72EFED710
:080B4000192EF7D70000120086
:080B4800600EF36E00EE00F0F8
:100B50000F0E01D81200EA6002D0EE6AFCD7F35003
:080B6000E9601200EE6AFCD707
:080B68001EEE00F02EEE00F07D
:100B7000F86A0F9C42EC04F003EC00F091EC04F0F6
:040B8000FBD712008D
:0C0B84000F01296B12000F01290503E18D
:0E0B9000296B869003D0010E296F868012001B
:020B9E00000055
:100BA0000000000000000000000000000000000045
:0A0BB00000000000C8000000000073
:010BBA00003A
:020BBB00000038
:020000040030CA
:0100010008F6
:010002001BE2
:0100030012EA
:01000400F308
:010005008377
:010006008178
:01000800F106
:010009008076
:01000A00FFF6
:01000B00E014
:01000C00FFF4
:01000D0040B2
:00000001FF
